:100000000C942A000C9434000C9434000C943400AA
:100010000C9434000C9434000C9434000C94340090
:100020000C9434000C9434000C9434000C94340080
:100030000C9434000C9434000C9434000C94340070
:100040000C9434000C9434000C9434000C94340060
:100050000C94340011241FBECFE5D8E0DEBFCDBF25
:100060000E9449000C945D000C94000023E023BF23
:1000700009C083E882BF88B7816088BF08B600FEE8
:10008000FDCFC9019C0121503109892B91F713BE85
:10009000089581B3806881BB84B38E7F84BB9899B7
:1000A00008C082B3805882BB84EF91E00E94360082
:0E00B000F6CF82B38F7782BBF2CFF894FFCFEA
:00000001FF
